{
  "_format": "hh-sol-artifact-1",
  "contractName": "Decentratwitter",
  "sourceName": "contracts/Decentratwitter.sol",
  "abi": [
    {
      "inputs": [],
      "stateMutability": "nonpayable",
      "type": "constructor"
    },
    {
      "anonymous": false,
      "inputs": [
        {
          "indexed": true,
          "internalType": "address",
          "name": "owner",
          "type": "address"
        },
        {
          "indexed": true,
          "internalType": "address",
          "name": "approved",
          "type": "address"
        },
        {
          "indexed": true,
          "internalType": "uint256",
          "name": "tokenId",
          "type": "uint256"
        }
      ],
      "name": "Approval",
      "type": "event"
    },
    {
      "anonymous": false,
      "inputs": [
        {
          "indexed": true,
          "internalType": "address",
          "name": "owner",
          "type": "address"
        },
        {
          "indexed": true,
          "internalType": "address",
          "name": "operator",
          "type": "address"
        },
        {
          "indexed": false,
          "internalType": "bool",
          "name": "approved",
          "type": "bool"
        }
      ],
      "name": "ApprovalForAll",
      "type": "event"
    },
    {
      "anonymous": false,
      "inputs": [
        {
          "indexed": false,
          "internalType": "uint256",
          "name": "id",
          "type": "uint256"
        },
        {
          "indexed": false,
          "internalType": "string",
          "name": "hash",
          "type": "string"
        },
        {
          "indexed": false,
          "internalType": "uint256",
          "name": "tipAmount",
          "type": "uint256"
        },
        {
          "indexed": false,
          "internalType": "address payable",
          "name": "author",
          "type": "address"
        }
      ],
      "name": "PostCreated",
      "type": "event"
    },
    {
      "anonymous": false,
      "inputs": [
        {
          "indexed": false,
          "internalType": "uint256",
          "name": "id",
          "type": "uint256"
        },
        {
          "indexed": false,
          "internalType": "string",
          "name": "hash",
          "type": "string"
        },
        {
          "indexed": false,
          "internalType": "uint256",
          "name": "tipAmount",
          "type": "uint256"
        },
        {
          "indexed": false,
          "internalType": "address payable",
          "name": "author",
          "type": "address"
        }
      ],
      "name": "PostTipped",
      "type": "event"
    },
    {
      "anonymous": false,
      "inputs": [
        {
          "indexed": true,
          "internalType": "address",
          "name": "from",
          "type": "address"
        },
        {
          "indexed": true,
          "internalType": "address",
          "name": "to",
          "type": "address"
        },
        {
          "indexed": true,
          "internalType": "uint256",
          "name": "tokenId",
          "type": "uint256"
        }
      ],
      "name": "Transfer",
      "type": "event"
    },
    {
      "inputs": [
        {
          "internalType": "address",
          "name": "to",
          "type": "address"
        },
        {
          "internalType": "uint256",
          "name": "tokenId",
          "type": "uint256"
        }
      ],
      "name": "approve",
      "outputs": [],
      "stateMutability": "nonpayable",
      "type": "function"
    },
    {
      "inputs": [
        {
          "internalType": "address",
          "name": "owner",
          "type": "address"
        }
      ],
      "name": "balanceOf",
      "outputs": [
        {
          "internalType": "uint256",
          "name": "",
          "type": "uint256"
        }
      ],
      "stateMutability": "view",
      "type": "function"
    },
    {
      "inputs": [],
      "name": "getAllPosts",
      "outputs": [
        {
          "components": [
            {
              "internalType": "uint256",
              "name": "id",
              "type": "uint256"
            },
            {
              "internalType": "string",
              "name": "hash",
              "type": "string"
            },
            {
              "internalType": "uint256",
              "name": "tipAmount",
              "type": "uint256"
            },
            {
              "internalType": "address payable",
              "name": "author",
              "type": "address"
            }
          ],
          "internalType": "struct Decentratwitter.Post[]",
          "name": "_posts",
          "type": "tuple[]"
        }
      ],
      "stateMutability": "view",
      "type": "function"
    },
    {
      "inputs": [
        {
          "internalType": "uint256",
          "name": "tokenId",
          "type": "uint256"
        }
      ],
      "name": "getApproved",
      "outputs": [
        {
          "internalType": "address",
          "name": "",
          "type": "address"
        }
      ],
      "stateMutability": "view",
      "type": "function"
    },
    {
      "inputs": [],
      "name": "getMyNfts",
      "outputs": [
        {
          "internalType": "uint256[]",
          "name": "_ids",
          "type": "uint256[]"
        }
      ],
      "stateMutability": "view",
      "type": "function"
    },
    {
      "inputs": [
        {
          "internalType": "address",
          "name": "owner",
          "type": "address"
        },
        {
          "internalType": "address",
          "name": "operator",
          "type": "address"
        }
      ],
      "name": "isApprovedForAll",
      "outputs": [
        {
          "internalType": "bool",
          "name": "",
          "type": "bool"
        }
      ],
      "stateMutability": "view",
      "type": "function"
    },
    {
      "inputs": [
        {
          "internalType": "string",
          "name": "_tokenURI",
          "type": "string"
        }
      ],
      "name": "mint",
      "outputs": [
        {
          "internalType": "uint256",
          "name": "",
          "type": "uint256"
        }
      ],
      "stateMutability": "nonpayable",
      "type": "function"
    },
    {
      "inputs": [],
      "name": "name",
      "outputs": [
        {
          "internalType": "string",
          "name": "",
          "type": "string"
        }
      ],
      "stateMutability": "view",
      "type": "function"
    },
    {
      "inputs": [
        {
          "internalType": "uint256",
          "name": "tokenId",
          "type": "uint256"
        }
      ],
      "name": "ownerOf",
      "outputs": [
        {
          "internalType": "address",
          "name": "",
          "type": "address"
        }
      ],
      "stateMutability": "view",
      "type": "function"
    },
    {
      "inputs": [],
      "name": "postCount",
      "outputs": [
        {
          "internalType": "uint256",
          "name": "",
          "type": "uint256"
        }
      ],
      "stateMutability": "view",
      "type": "function"
    },
    {
      "inputs": [
        {
          "internalType": "uint256",
          "name": "",
          "type": "uint256"
        }
      ],
      "name": "posts",
      "outputs": [
        {
          "internalType": "uint256",
          "name": "id",
          "type": "uint256"
        },
        {
          "internalType": "string",
          "name": "hash",
          "type": "string"
        },
        {
          "internalType": "uint256",
          "name": "tipAmount",
          "type": "uint256"
        },
        {
          "internalType": "address payable",
          "name": "author",
          "type": "address"
        }
      ],
      "stateMutability": "view",
      "type": "function"
    },
    {
      "inputs": [
        {
          "internalType": "address",
          "name": "",
          "type": "address"
        }
      ],
      "name": "profiles",
      "outputs": [
        {
          "internalType": "uint256",
          "name": "",
          "type": "uint256"
        }
      ],
      "stateMutability": "view",
      "type": "function"
    },
    {
      "inputs": [
        {
          "internalType": "address",
          "name": "from",
          "type": "address"
        },
        {
          "internalType": "address",
          "name": "to",
          "type": "address"
        },
        {
          "internalType": "uint256",
          "name": "tokenId",
          "type": "uint256"
        }
      ],
      "name": "safeTransferFrom",
      "outputs": [],
      "stateMutability": "nonpayable",
      "type": "function"
    },
    {
      "inputs": [
        {
          "internalType": "address",
          "name": "from",
          "type": "address"
        },
        {
          "internalType": "address",
          "name": "to",
          "type": "address"
        },
        {
          "internalType": "uint256",
          "name": "tokenId",
          "type": "uint256"
        },
        {
          "internalType": "bytes",
          "name": "_data",
          "type": "bytes"
        }
      ],
      "name": "safeTransferFrom",
      "outputs": [],
      "stateMutability": "nonpayable",
      "type": "function"
    },
    {
      "inputs": [
        {
          "internalType": "address",
          "name": "operator",
          "type": "address"
        },
        {
          "internalType": "bool",
          "name": "approved",
          "type": "bool"
        }
      ],
      "name": "setApprovalForAll",
      "outputs": [],
      "stateMutability": "nonpayable",
      "type": "function"
    },
    {
      "inputs": [
        {
          "internalType": "uint256",
          "name": "_id",
          "type": "uint256"
        }
      ],
      "name": "setProfile",
      "outputs": [],
      "stateMutability": "nonpayable",
      "type": "function"
    },
    {
      "inputs": [
        {
          "internalType": "bytes4",
          "name": "interfaceId",
          "type": "bytes4"
        }
      ],
      "name": "supportsInterface",
      "outputs": [
        {
          "internalType": "bool",
          "name": "",
          "type": "bool"
        }
      ],
      "stateMutability": "view",
      "type": "function"
    },
    {
      "inputs": [],
      "name": "symbol",
      "outputs": [
        {
          "internalType": "string",
          "name": "",
          "type": "string"
        }
      ],
      "stateMutability": "view",
      "type": "function"
    },
    {
      "inputs": [
        {
          "internalType": "uint256",
          "name": "_id",
          "type": "uint256"
        }
      ],
      "name": "tipPostOwner",
      "outputs": [],
      "stateMutability": "payable",
      "type": "function"
    },
    {
      "inputs": [],
      "name": "tokenCount",
      "outputs": [
        {
          "internalType": "uint256",
          "name": "",
          "type": "uint256"
        }
      ],
      "stateMutability": "view",
      "type": "function"
    },
    {
      "inputs": [
        {
          "internalType": "uint256",
          "name": "tokenId",
          "type": "uint256"
        }
      ],
      "name": "tokenURI",
      "outputs": [
        {
          "internalType": "string",
          "name": "",
          "type": "string"
        }
      ],
      "stateMutability": "view",
      "type": "function"
    },
    {
      "inputs": [
        {
          "internalType": "address",
          "name": "from",
          "type": "address"
        },
        {
          "internalType": "address",
          "name": "to",
          "type": "address"
        },
        {
          "internalType": "uint256",
          "name": "tokenId",
          "type": "uint256"
        }
      ],
      "name": "transferFrom",
      "outputs": [],
      "stateMutability": "nonpayable",
      "type": "function"
    },
    {
      "inputs": [
        {
          "internalType": "string",
          "name": "_postHash",
          "type": "string"
        }
      ],
      "name": "uploadPost",
      "outputs": [],
      "stateMutability": "nonpayable",
      "type": "function"
    }
  ],
  "bytecode": "0x60806040523480156200001157600080fd5b506040518060400160405280600f81526020017f446563656e7472617477697474657200000000000000000000000000000000008152506040518060400160405280600481526020017f444150500000000000000000000000000000000000000000000000000000000081525081600090816200008f919062000324565b508060019081620000a1919062000324565b5050506200040b565b600081519050919050565b7f4e487b7100000000000000000000000000000000000000000000000000000000600052604160045260246000fd5b7f4e487b7100000000000000000000000000000000000000000000000000000000600052602260045260246000fd5b600060028204905060018216806200012c57607f821691505b602082108103620001425762000141620000e4565b5b50919050565b60008190508160005260206000209050919050565b60006020601f8301049050919050565b600082821b905092915050565b600060088302620001ac7fffffffffffffffffffffffffffffffffffffffffffffffffffffffffffffffff826200016d565b620001b886836200016d565b95508019841693508086168417925050509392505050565b6000819050919050565b6000819050919050565b600062000205620001ff620001f984620001d0565b620001da565b620001d0565b9050919050565b6000819050919050565b6200022183620001e4565b6200023962000230826200020c565b8484546200017a565b825550505050565b600090565b6200025062000241565b6200025d81848462000216565b505050565b5b8181101562000285576200027960008262000246565b60018101905062000263565b5050565b601f821115620002d4576200029e8162000148565b620002a9846200015d565b81016020851015620002b9578190505b620002d1620002c8856200015d565b83018262000262565b50505b505050565b600082821c905092915050565b6000620002f960001984600802620002d9565b1980831691505092915050565b6000620003148383620002e6565b9150826002028217905092915050565b6200032f82620000aa565b67ffffffffffffffff8111156200034b576200034a620000b5565b5b62000357825462000113565b6200036482828562000289565b600060209050601f8311600181146200039c576000841562000387578287015190505b62000393858262000306565b86555062000403565b601f198416620003ac8662000148565b60005b82811015620003d657848901518255600182019150602085019450602081019050620003af565b86831015620003f65784890151620003f2601f891682620002e6565b8355505b6001600288020188555050505b505050505050565b613fb2806200041b6000396000f3fe6080604052600436106101405760003560e01c806370a08231116100b6578063bbe156271161006f578063bbe1562714610471578063bdd05adb146104ae578063c87b56dd146104d7578063d6313c0614610514578063d85d3d2714610530578063e985e9c51461056d57610140565b806370a082311461036357806385d3cb37146103a057806395d89b41146103c95780639f181b5e146103f4578063a22cb4651461041f578063b88d4fde1461044857610140565b80630b1e7f83116101085780630b1e7f831461023e57806317906c2e1461027e57806323b872dd146102a957806330561100146102d257806342842e0e146102fd5780636352211e1461032657610140565b806301ffc9a714610145578063047b07bf1461018257806306fdde03146101ad578063081812fc146101d8578063095ea7b314610215575b600080fd5b34801561015157600080fd5b5061016c600480360381019061016791906124fa565b6105aa565b6040516101799190612542565b60405180910390f35b34801561018e57600080fd5b5061019761068c565b6040516101a49190612625565b60405180910390f35b3480156101b957600080fd5b506101c261078f565b6040516101cf91906126d7565b60405180910390f35b3480156101e457600080fd5b506101ff60048036038101906101fa9190612725565b610821565b60405161020c9190612793565b60405180910390f35b34801561022157600080fd5b5061023c600480360381019061023791906127da565b6108a6565b005b34801561024a57600080fd5b5061026560048036038101906102609190612725565b6109bd565b604051610275949392919061284a565b60405180910390f35b34801561028a57600080fd5b50610293610a95565b6040516102a09190612896565b60405180910390f35b3480156102b557600080fd5b506102d060048036038101906102cb91906128b1565b610a9b565b005b3480156102de57600080fd5b506102e7610afb565b6040516102f49190612a82565b60405180910390f35b34801561030957600080fd5b50610324600480360381019061031f91906128b1565b610cbc565b005b34801561033257600080fd5b5061034d60048036038101906103489190612725565b610cdc565b60405161035a9190612793565b60405180910390f35b34801561036f57600080fd5b5061038a60048036038101906103859190612aa4565b610d8d565b6040516103979190612896565b60405180910390f35b3480156103ac57600080fd5b506103c760048036038101906103c29190612725565b610e44565b005b3480156103d557600080fd5b506103de610f01565b6040516103eb91906126d7565b60405180910390f35b34801561040057600080fd5b50610409610f93565b6040516104169190612896565b60405180910390f35b34801561042b57600080fd5b5061044660048036038101906104419190612afd565b610f99565b005b34801561045457600080fd5b5061046f600480360381019061046a9190612c72565b610faf565b005b34801561047d57600080fd5b5061049860048036038101906104939190612aa4565b611011565b6040516104a59190612896565b60405180910390f35b3480156104ba57600080fd5b506104d560048036038101906104d09190612d96565b611029565b005b3480156104e357600080fd5b506104fe60048036038101906104f99190612725565b6111d6565b60405161050b91906126d7565b60405180910390f35b61052e60048036038101906105299190612725565b611327565b005b34801561053c57600080fd5b5061055760048036038101906105529190612d96565b611641565b6040516105649190612896565b60405180910390f35b34801561057957600080fd5b50610594600480360381019061058f9190612ddf565b611688565b6040516105a19190612542565b60405180910390f35b60007f80ac58cd000000000000000000000000000000000000000000000000000000007bffffffffffffffffffffffffffffffffffffffffffffffffffffffff1916827bffffffffffffffffffffffffffffffffffffffffffffffffffffffff1916148061067557507f5b5e139f000000000000000000000000000000000000000000000000000000007bffffffffffffffffffffffffffffffffffffffffffffffffffffffff1916827bffffffffffffffffffffffffffffffffffffffffffffffffffffffff1916145b8061068557506106848261171c565b5b9050919050565b606061069733610d8d565b67ffffffffffffffff8111156106b0576106af612b47565b5b6040519080825280602002602001820160405280156106de5781602001602082028036833780820191505090505b509050600080600754905060005b81811015610789573373ffffffffffffffffffffffffffffffffffffffff1661072060018361071b9190612e4e565b610cdc565b73ffffffffffffffffffffffffffffffffffffffff1603610776576001816107489190612e4e565b84848151811061075b5761075a612e82565b5b602002602001018181525050828061077290612eb1565b9350505b808061078190612eb1565b9150506106ec565b50505090565b60606000805461079e90612f28565b80601f01602080910402602001604051908101604052809291908181526020018280546107ca90612f28565b80156108175780601f106107ec57610100808354040283529160200191610817565b820191906000526020600020905b8154815290600101906020018083116107fa57829003601f168201915b5050505050905090565b600061082c82611786565b61086b576040517f08c379a000000000000000000000000000000000000000000000000000000000815260040161086290612fcb565b60405180910390fd5b6004600083815260200190815260200160002060009054906101000a900473ffffffffffffffffffffffffffffffffffffffff169050919050565b60006108b182610cdc565b90508073ffffffffffffffffffffffffffffffffffffffff168373ffffffffffffffffffffffffffffffffffffffff1603610921576040517f08c379a00000000000000000000000000000000000000000000000000000000081526004016109189061305d565b60405180910390fd5b8073ffffffffffffffffffffffffffffffffffffffff166109406117f2565b73ffffffffffffffffffffffffffffffffffffffff16148061096f575061096e816109696117f2565b611688565b5b6109ae576040517f08c379a00000000000000000000000000000000000000000000000000000000081526004016109a5906130ef565b60405180910390fd5b6109b883836117fa565b505050565b60096020528060005260406000206000915090508060000154908060010180546109e690612f28565b80601f0160208091040260200160405190810160405280929190818152602001828054610a1290612f28565b8015610a5f5780601f10610a3457610100808354040283529160200191610a5f565b820191906000526020600020905b815481529060010190602001808311610a4257829003601f168201915b5050505050908060020154908060030160009054906101000a900473ffffffffffffffffffffffffffffffffffffffff16905084565b60085481565b610aac610aa66117f2565b826118b3565b610aeb576040517f08c379a0000000000000000000000000000000000000000000000000000000008152600401610ae290613181565b60405180910390fd5b610af6838383611991565b505050565b606060085467ffffffffffffffff811115610b1957610b18612b47565b5b604051908082528060200260200182016040528015610b5257816020015b610b3f612450565b815260200190600190039081610b375790505b50905060005b8151811015610cb85760096000600183610b729190612e4e565b815260200190815260200160002060405180608001604052908160008201548152602001600182018054610ba590612f28565b80601f0160208091040260200160405190810160405280929190818152602001828054610bd190612f28565b8015610c1e5780601f10610bf357610100808354040283529160200191610c1e565b820191906000526020600020905b815481529060010190602001808311610c0157829003601f168201915b50505050508152602001600282015481526020016003820160009054906101000a900473ffffffffffffffffffffffffffffffffffffffff1673ffffffffffffffffffffffffffffffffffffffff1673ffffffffffffffffffffffffffffffffffffffff1681525050828281518110610c9a57610c99612e82565b5b60200260200101819052508080610cb090612eb1565b915050610b58565b5090565b610cd783838360405180602001604052806000815250610faf565b505050565b6000806002600084815260200190815260200160002060009054906101000a900473ffffffffffffffffffffffffffffffffffffffff169050600073ffffffffffffffffffffffffffffffffffffffff168173ffffffffffffffffffffffffffffffffffffffff1603610d84576040517f08c379a0000000000000000000000000000000000000000000000000000000008152600401610d7b90613213565b60405180910390fd5b80915050919050565b60008073ffffffffffffffffffffffffffffffffffffffff168273ffffffffffffffffffffffffffffffffffffffff1603610dfd576040517f08c379a0000000000000000000000000000000000000000000000000000000008152600401610df4906132a5565b60405180910390fd5b600360008373ffffffffffffffffffffffffffffffffffffffff1673ffffffffffffffffffffffffffffffffffffffff168152602001908152602001600020549050919050565b3373ffffffffffffffffffffffffffffffffffffffff16610e6482610cdc565b73ffffffffffffffffffffffffffffffffffffffff1614610eba576040517f08c379a0000000000000000000000000000000000000000000000000000000008152600401610eb190613337565b60405180910390fd5b80600a60003373ffffffffffffffffffffffffffffffffffffffff1673ffffffffffffffffffffffffffffffffffffffff1681526020019081526020016000208190555050565b606060018054610f1090612f28565b80601f0160208091040260200160405190810160405280929190818152602001828054610f3c90612f28565b8015610f895780601f10610f5e57610100808354040283529160200191610f89565b820191906000526020600020905b815481529060010190602001808311610f6c57829003601f168201915b5050505050905090565b60075481565b610fab610fa46117f2565b8383611bf7565b5050565b610fc0610fba6117f2565b836118b3565b610fff576040517f08c379a0000000000000000000000000000000000000000000000000000000008152600401610ff690613181565b60405180910390fd5b61100b84848484611d63565b50505050565b600a6020528060005260406000206000915090505481565b600061103433610d8d565b11611074576040517f08c379a000000000000000000000000000000000000000000000000000000000815260040161106b906133c9565b60405180910390fd5b60008151116110b8576040517f08c379a00000000000000000000000000000000000000000000000000000000081526004016110af90613435565b60405180910390fd5b600860008154809291906110cb90612eb1565b919050555060405180608001604052806008548152602001828152602001600081526020013373ffffffffffffffffffffffffffffffffffffffff1681525060096000600854815260200190815260200160002060008201518160000155602082015181600101908161113e9190613601565b506040820151816002015560608201518160030160006101000a81548173ffffffffffffffffffffffffffffffffffffffff021916908373ffffffffffffffffffffffffffffffffffffffff1602179055509050507fc66336337a24e513f909b3b25119854dba8385d51307dbc7d31d1b2805e19c7e600854826000336040516111cb949392919061370e565b60405180910390a150565b60606111e182611786565b611220576040517f08c379a0000000000000000000000000000000000000000000000000000000008152600401611217906137cc565b60405180910390fd5b600060066000848152602001908152602001600020805461124090612f28565b80601f016020809104026020016040519081016040528092919081815260200182805461126c90612f28565b80156112b95780601f1061128e576101008083540402835291602001916112b9565b820191906000526020600020905b81548152906001019060200180831161129c57829003601f168201915b5050505050905060006112ca611dbf565b905060008151036112df578192505050611322565b6000825111156113145780826040516020016112fc929190613828565b60405160208183030381529060405292505050611322565b61131d84611dd6565b925050505b919050565b60008111801561133957506008548111155b611378576040517f08c379a000000000000000000000000000000000000000000000000000000000815260040161136f90613898565b60405180910390fd5b600060096000838152602001908152602001600020604051806080016040529081600082015481526020016001820180546113b290612f28565b80601f01602080910402602001604051908101604052809291908181526020018280546113de90612f28565b801561142b5780601f106114005761010080835404028352916020019161142b565b820191906000526020600020905b81548152906001019060200180831161140e57829003601f168201915b50505050508152602001600282015481526020016003820160009054906101000a900473ffffffffffffffffffffffffffffffffffffffff1673ffffffffffffffffffffffffffffffffffffffff1673ffffffffffffffffffffffffffffffffffffffff168152505090503373ffffffffffffffffffffffffffffffffffffffff16816060015173ffffffffffffffffffffffffffffffffffffffff1603611508576040517f08c379a00000000000000000000000000000000000000000000000000000000081526004016114ff90613904565b60405180910390fd5b806060015173ffffffffffffffffffffffffffffffffffffffff166108fc349081150290604051600060405180830381858888f19350505050158015611552573d6000803e3d6000fd5b5034816040018181516115659190612e4e565b91508181525050806009600084815260200190815260200160002060008201518160000155602082015181600101908161159f9190613601565b506040820151816002015560608201518160030160006101000a81548173ffffffffffffffffffffffffffffffffffffffff021916908373ffffffffffffffffffffffffffffffffffffffff1602179055509050507f20988fe475351e75813672abada1dddb7ac67cbbeb81e61e1160b8329d8cdf1c82826020015183604001518460600151604051611635949392919061284a565b60405180910390a15050565b60006007600081548092919061165690612eb1565b919050555061166733600754611e7d565b61167360075483611e9b565b61167e600754610e44565b6007549050919050565b6000600560008473ffffffffffffffffffffffffffffffffffffffff1673ffffffffffffffffffffffffffffffffffffffff16815260200190815260200160002060008373ffffffffffffffffffffffffffffffffffffffff1673ffffffffffffffffffffffffffffffffffffffff16815260200190815260200160002060009054906101000a900460ff16905092915050565b60007f01ffc9a7000000000000000000000000000000000000000000000000000000007bffffffffffffffffffffffffffffffffffffffffffffffffffffffff1916827bffffffffffffffffffffffffffffffffffffffffffffffffffffffff1916149050919050565b60008073ffffffffffffffffffffffffffffffffffffffff166002600084815260200190815260200160002060009054906101000a900473ffffffffffffffffffffffffffffffffffffffff1673ffffffffffffffffffffffffffffffffffffffff1614159050919050565b600033905090565b816004600083815260200190815260200160002060006101000a81548173ffffffffffffffffffffffffffffffffffffffff021916908373ffffffffffffffffffffffffffffffffffffffff160217905550808273ffffffffffffffffffffffffffffffffffffffff1661186d83610cdc565b73ffffffffffffffffffffffffffffffffffffffff167f8c5be1e5ebec7d5bd14f71427d1e84f3dd0314c0f7b2291e5b200ac8c7c3b92560405160405180910390a45050565b60006118be82611786565b6118fd576040517f08c379a00000000000000000000000000000000000000000000000000000000081526004016118f490613996565b60405180910390fd5b600061190883610cdc565b90508073ffffffffffffffffffffffffffffffffffffffff168473ffffffffffffffffffffffffffffffffffffffff16148061197757508373ffffffffffffffffffffffffffffffffffffffff1661195f84610821565b73ffffffffffffffffffffffffffffffffffffffff16145b8061198857506119878185611688565b5b91505092915050565b8273ffffffffffffffffffffffffffffffffffffffff166119b182610cdc565b73ffffffffffffffffffffffffffffffffffffffff1614611a07576040517f08c379a00000000000000000000000000000000000000000000000000000000081526004016119fe90613a28565b60405180910390fd5b600073ffffffffffffffffffffffffffffffffffffffff168273ffffffffffffffffffffffffffffffffffffffff1603611a76576040517f08c379a0000000000000000000000000000000000000000000000000000000008152600401611a6d90613aba565b60405180910390fd5b611a81838383611f08565b611a8c6000826117fa565b6001600360008573ffffffffffffffffffffffffffffffffffffffff1673ffffffffffffffffffffffffffffffffffffffff1681526020019081526020016000206000828254611adc9190613ada565b925050819055506001600360008473ffffffffffffffffffffffffffffffffffffffff1673ffffffffffffffffffffffffffffffffffffffff1681526020019081526020016000206000828254611b339190612e4e565b92505081905550816002600083815260200190815260200160002060006101000a81548173ffffffffffffffffffffffffffffffffffffffff021916908373ffffffffffffffffffffffffffffffffffffffff160217905550808273ffffffffffffffffffffffffffffffffffffffff168473ffffffffffffffffffffffffffffffffffffffff167fddf252ad1be2c89b69c2b068fc378daa952ba7f163c4a11628f55a4df523b3ef60405160405180910390a4611bf2838383611f0d565b505050565b8173ffffffffffffffffffffffffffffffffffffffff168373ffffffffffffffffffffffffffffffffffffffff1603611c65576040517f08c379a0000000000000000000000000000000000000000000000000000000008152600401611c5c90613b5a565b60405180910390fd5b80600560008573ffffffffffffffffffffffffffffffffffffffff1673ffffffffffffffffffffffffffffffffffffffff16815260200190815260200160002060008473ffffffffffffffffffffffffffffffffffffffff1673ffffffffffffffffffffffffffffffffffffffff16815260200190815260200160002060006101000a81548160ff0219169083151502179055508173ffffffffffffffffffffffffffffffffffffffff168373ffffffffffffffffffffffffffffffffffffffff167f17307eab39ab6107e8899845ad3d59bd9653f200f220920489ca2b5937696c3183604051611d569190612542565b60405180910390a3505050565b611d6e848484611991565b611d7a84848484611f12565b611db9576040517f08c379a0000000000000000000000000000000000000000000000000000000008152600401611db090613bec565b60405180910390fd5b50505050565b606060405180602001604052806000815250905090565b6060611de182611786565b611e20576040517f08c379a0000000000000000000000000000000000000000000000000000000008152600401611e1790613c7e565b60405180910390fd5b6000611e2a611dbf565b90506000815111611e4a5760405180602001604052806000815250611e75565b80611e5484612099565b604051602001611e65929190613828565b6040516020818303038152906040525b915050919050565b611e978282604051806020016040528060008152506121f9565b5050565b611ea482611786565b611ee3576040517f08c379a0000000000000000000000000000000000000000000000000000000008152600401611eda90613d10565b60405180910390fd5b80600660008481526020019081526020016000209081611f039190613601565b505050565b505050565b505050565b6000611f338473ffffffffffffffffffffffffffffffffffffffff16612254565b1561208c578373ffffffffffffffffffffffffffffffffffffffff1663150b7a02611f5c6117f2565b8786866040518563ffffffff1660e01b8152600401611f7e9493929190613d85565b6020604051808303816000875af1925050508015611fba57506040513d601f19601f82011682018060405250810190611fb79190613de6565b60015b61203c573d8060008114611fea576040519150601f19603f3d011682016040523d82523d6000602084013e611fef565b606091505b506000815103612034576040517f08c379a000000000000000000000000000000000000000000000000000000000815260040161202b90613bec565b60405180910390fd5b805181602001fd5b63150b7a0260e01b7bffffffffffffffffffffffffffffffffffffffffffffffffffffffff1916817bffffffffffffffffffffffffffffffffffffffffffffffffffffffff191614915050612091565b600190505b949350505050565b6060600082036120e0576040518060400160405280600181526020017f300000000000000000000000000000000000000000000000000000000000000081525090506121f4565b600082905060005b600082146121125780806120fb90612eb1565b915050600a8261210b9190613e42565b91506120e8565b60008167ffffffffffffffff81111561212e5761212d612b47565b5b6040519080825280601f01601f1916602001820160405280156121605781602001600182028036833780820191505090505b5090505b600085146121ed576001826121799190613ada565b9150600a856121889190613e73565b60306121949190612e4e565b60f81b8183815181106121aa576121a9612e82565b5b60200101907effffffffffffffffffffffffffffffffffffffffffffffffffffffffffffff1916908160001a905350600a856121e69190613e42565b9450612164565b8093505050505b919050565b6122038383612277565b6122106000848484611f12565b61224f576040517f08c379a000000000000000000000000000000000000000000000000000000000815260040161224690613bec565b60405180910390fd5b505050565b6000808273ffffffffffffffffffffffffffffffffffffffff163b119050919050565b600073ffffffffffffffffffffffffffffffffffffffff168273ffffffffffffffffffffffffffffffffffffffff16036122e6576040517f08c379a00000000000000000000000000000000000000000000000000000000081526004016122dd90613ef0565b60405180910390fd5b6122ef81611786565b1561232f576040517f08c379a000000000000000000000000000000000000000000000000000000000815260040161232690613f5c565b60405180910390fd5b61233b60008383611f08565b6001600360008473ffffffffffffffffffffffffffffffffffffffff1673ffffffffffffffffffffffffffffffffffffffff168152602001908152602001600020600082825461238b9190612e4e565b92505081905550816002600083815260200190815260200160002060006101000a81548173ffffffffffffffffffffffffffffffffffffffff021916908373ffffffffffffffffffffffffffffffffffffffff160217905550808273ffffffffffffffffffffffffffffffffffffffff16600073ffffffffffffffffffffffffffffffffffffffff167fddf252ad1be2c89b69c2b068fc378daa952ba7f163c4a11628f55a4df523b3ef60405160405180910390a461244c60008383611f0d565b5050565b6040518060800160405280600081526020016060815260200160008152602001600073ffffffffffffffffffffffffffffffffffffffff1681525090565b6000604051905090565b600080fd5b600080fd5b60007fffffffff0000000000000000000000000000000000000000000000000000000082169050919050565b6124d7816124a2565b81146124e257600080fd5b50565b6000813590506124f4816124ce565b92915050565b6000602082840312156125105761250f612498565b5b600061251e848285016124e5565b91505092915050565b60008115159050919050565b61253c81612527565b82525050565b60006020820190506125576000830184612533565b92915050565b600081519050919050565b600082825260208201905092915050565b6000819050602082019050919050565b6000819050919050565b61259c81612589565b82525050565b60006125ae8383612593565b60208301905092915050565b6000602082019050919050565b60006125d28261255d565b6125dc8185612568565b93506125e783612579565b8060005b838110156126185781516125ff88826125a2565b975061260a836125ba565b9250506001810190506125eb565b5085935050505092915050565b6000602082019050818103600083015261263f81846125c7565b905092915050565b600081519050919050565b600082825260208201905092915050565b60005b83811015612681578082015181840152602081019050612666565b60008484015250505050565b6000601f19601f8301169050919050565b60006126a982612647565b6126b38185612652565b93506126c3818560208601612663565b6126cc8161268d565b840191505092915050565b600060208201905081810360008301526126f1818461269e565b905092915050565b61270281612589565b811461270d57600080fd5b50565b60008135905061271f816126f9565b92915050565b60006020828403121561273b5761273a612498565b5b600061274984828501612710565b91505092915050565b600073ffffffffffffffffffffffffffffffffffffffff82169050919050565b600061277d82612752565b9050919050565b61278d81612772565b82525050565b60006020820190506127a86000830184612784565b92915050565b6127b781612772565b81146127c257600080fd5b50565b6000813590506127d4816127ae565b92915050565b600080604083850312156127f1576127f0612498565b5b60006127ff858286016127c5565b925050602061281085828601612710565b9150509250929050565b61282381612589565b82525050565b600061283482612752565b9050919050565b61284481612829565b82525050565b600060808201905061285f600083018761281a565b8181036020830152612871818661269e565b9050612880604083018561281a565b61288d606083018461283b565b95945050505050565b60006020820190506128ab600083018461281a565b92915050565b6000806000606084860312156128ca576128c9612498565b5b60006128d8868287016127c5565b93505060206128e9868287016127c5565b92505060406128fa86828701612710565b9150509250925092565b600081519050919050565b600082825260208201905092915050565b6000819050602082019050919050565b600082825260208201905092915050565b600061294c82612647565b6129568185612930565b9350612966818560208601612663565b61296f8161268d565b840191505092915050565b61298381612829565b82525050565b60006080830160008301516129a16000860182612593565b50602083015184820360208601526129b98282612941565b91505060408301516129ce6040860182612593565b5060608301516129e1606086018261297a565b508091505092915050565b60006129f88383612989565b905092915050565b6000602082019050919050565b6000612a1882612904565b612a22818561290f565b935083602082028501612a3485612920565b8060005b85811015612a705784840389528151612a5185826129ec565b9450612a5c83612a00565b925060208a01995050600181019050612a38565b50829750879550505050505092915050565b60006020820190508181036000830152612a9c8184612a0d565b905092915050565b600060208284031215612aba57612ab9612498565b5b6000612ac8848285016127c5565b91505092915050565b612ada81612527565b8114612ae557600080fd5b50565b600081359050612af781612ad1565b92915050565b60008060408385031215612b1457612b13612498565b5b6000612b22858286016127c5565b9250506020612b3385828601612ae8565b9150509250929050565b600080fd5b600080fd5b7f4e487b7100000000000000000000000000000000000000000000000000000000600052604160045260246000fd5b612b7f8261268d565b810181811067ffffffffffffffff82111715612b9e57612b9d612b47565b5b80604052505050565b6000612bb161248e565b9050612bbd8282612b76565b919050565b600067ffffffffffffffff821115612bdd57612bdc612b47565b5b612be68261268d565b9050602081019050919050565b82818337600083830152505050565b6000612c15612c1084612bc2565b612ba7565b905082815260208101848484011115612c3157612c30612b42565b5b612c3c848285612bf3565b509392505050565b600082601f830112612c5957612c58612b3d565b5b8135612c69848260208601612c02565b91505092915050565b60008060008060808587031215612c8c57612c8b612498565b5b6000612c9a878288016127c5565b9450506020612cab878288016127c5565b9350506040612cbc87828801612710565b925050606085013567ffffffffffffffff811115612cdd57612cdc61249d565b5b612ce987828801612c44565b91505092959194509250565b600067ffffffffffffffff821115612d1057612d0f612b47565b5b612d198261268d565b9050602081019050919050565b6000612d39612d3484612cf5565b612ba7565b905082815260208101848484011115612d5557612d54612b42565b5b612d60848285612bf3565b509392505050565b600082601f830112612d7d57612d7c612b3d565b5b8135612d8d848260208601612d26565b91505092915050565b600060208284031215612dac57612dab612498565b5b600082013567ffffffffffffffff811115612dca57612dc961249d565b5b612dd684828501612d68565b91505092915050565b60008060408385031215612df657612df5612498565b5b6000612e04858286016127c5565b9250506020612e15858286016127c5565b9150509250929050565b7f4e487b7100000000000000000000000000000000000000000000000000000000600052601160045260246000fd5b6000612e5982612589565b9150612e6483612589565b9250828201905080821115612e7c57612e7b612e1f565b5b92915050565b7f4e487b7100000000000000000000000000000000000000000000000000000000600052603260045260246000fd5b6000612ebc82612589565b91507fffffffffffffffffffffffffffffffffffffffffffffffffffffffffffffffff8203612eee57612eed612e1f565b5b600182019050919050565b7f4e487b7100000000000000000000000000000000000000000000000000000000600052602260045260246000fd5b60006002820490506001821680612f4057607f821691505b602082108103612f5357612f52612ef9565b5b50919050565b7f4552433732313a20617070726f76656420717565727920666f72206e6f6e657860008201527f697374656e7420746f6b656e0000000000000000000000000000000000000000602082015250565b6000612fb5602c83612652565b9150612fc082612f59565b604082019050919050565b60006020820190508181036000830152612fe481612fa8565b9050919050565b7f4552433732313a20617070726f76616c20746f2063757272656e74206f776e6560008201527f7200000000000000000000000000000000000000000000000000000000000000602082015250565b6000613047602183612652565b915061305282612feb565b604082019050919050565b600060208201905081810360008301526130768161303a565b9050919050565b7f4552433732313a20617070726f76652063616c6c6572206973206e6f74206f7760008201527f6e6572206e6f7220617070726f76656420666f7220616c6c0000000000000000602082015250565b60006130d9603883612652565b91506130e48261307d565b604082019050919050565b60006020820190508181036000830152613108816130cc565b9050919050565b7f4552433732313a207472616e736665722063616c6c6572206973206e6f74206f60008201527f776e6572206e6f7220617070726f766564000000000000000000000000000000602082015250565b600061316b603183612652565b91506131768261310f565b604082019050919050565b6000602082019050818103600083015261319a8161315e565b9050919050565b7f4552433732313a206f776e657220717565727920666f72206e6f6e657869737460008201527f656e7420746f6b656e0000000000000000000000000000000000000000000000602082015250565b60006131fd602983612652565b9150613208826131a1565b604082019050919050565b6000602082019050818103600083015261322c816131f0565b9050919050565b7f4552433732313a2062616c616e636520717565727920666f7220746865207a6560008201527f726f206164647265737300000000000000000000000000000000000000000000602082015250565b600061328f602a83612652565b915061329a82613233565b604082019050919050565b600060208201905081810360008301526132be81613282565b9050919050565b7f4d757374206f776e20746865206e667420796f752077616e7420746f2073656c60008201527f65637420617320796f75722070726f66696c6500000000000000000000000000602082015250565b6000613321603383612652565b915061332c826132c5565b604082019050919050565b6000602082019050818103600083015261335081613314565b9050919050565b7f4d757374206f776e206120646563656e74726174776974746572206e6674207460008201527f6f20706f73740000000000000000000000000000000000000000000000000000602082015250565b60006133b3602683612652565b91506133be82613357565b604082019050919050565b600060208201905081810360008301526133e2816133a6565b9050919050565b7f43616e6e6f74207061737320616e20656d707479206861736800000000000000600082015250565b600061341f601983612652565b915061342a826133e9565b602082019050919050565b6000602082019050818103600083015261344e81613412565b9050919050565b60008190508160005260206000209050919050565b60006020601f8301049050919050565b600082821b905092915050565b6000600883026134b77fffffffffffffffffffffffffffffffffffffffffffffffffffffffffffffffff8261347a565b6134c1868361347a565b95508019841693508086168417925050509392505050565b6000819050919050565b60006134fe6134f96134f484612589565b6134d9565b612589565b9050919050565b6000819050919050565b613518836134e3565b61352c61352482613505565b848454613487565b825550505050565b600090565b613541613534565b61354c81848461350f565b505050565b5b8181101561357057613565600082613539565b600181019050613552565b5050565b601f8211156135b55761358681613455565b61358f8461346a565b8101602085101561359e578190505b6135b26135aa8561346a565b830182613551565b50505b505050565b600082821c905092915050565b60006135d8600019846008026135ba565b1980831691505092915050565b60006135f183836135c7565b9150826002028217905092915050565b61360a82612647565b67ffffffffffffffff81111561362357613622612b47565b5b61362d8254612f28565b613638828285613574565b600060209050601f83116001811461366b5760008415613659578287015190505b61366385826135e5565b8655506136cb565b601f19841661367986613455565b60005b828110156136a15784890151825560018201915060208501945060208101905061367c565b868310156136be57848901516136ba601f8916826135c7565b8355505b6001600288020188555050505b505050505050565b6000819050919050565b60006136f86136f36136ee846136d3565b6134d9565b612589565b9050919050565b613708816136dd565b82525050565b6000608082019050613723600083018761281a565b8181036020830152613735818661269e565b905061374460408301856136ff565b613751606083018461283b565b95945050505050565b7f45524337323155524953746f726167653a2055524920717565727920666f722060008201527f6e6f6e6578697374656e7420746f6b656e000000000000000000000000000000602082015250565b60006137b6603183612652565b91506137c18261375a565b604082019050919050565b600060208201905081810360008301526137e5816137a9565b9050919050565b600081905092915050565b600061380282612647565b61380c81856137ec565b935061381c818560208601612663565b80840191505092915050565b600061383482856137f7565b915061384082846137f7565b91508190509392505050565b7f496e76616c696420706f73742069640000000000000000000000000000000000600082015250565b6000613882600f83612652565b915061388d8261384c565b602082019050919050565b600060208201905081810360008301526138b181613875565b9050919050565b7f43616e6e6f742074697020796f7572206f776e20706f73740000000000000000600082015250565b60006138ee601883612652565b91506138f9826138b8565b602082019050919050565b6000602082019050818103600083015261391d816138e1565b9050919050565b7f4552433732313a206f70657261746f7220717565727920666f72206e6f6e657860008201527f697374656e7420746f6b656e0000000000000000000000000000000000000000602082015250565b6000613980602c83612652565b915061398b82613924565b604082019050919050565b600060208201905081810360008301526139af81613973565b9050919050565b7f4552433732313a207472616e736665722066726f6d20696e636f72726563742060008201527f6f776e6572000000000000000000000000000000000000000000000000000000602082015250565b6000613a12602583612652565b9150613a1d826139b6565b604082019050919050565b60006020820190508181036000830152613a4181613a05565b9050919050565b7f4552433732313a207472616e7366657220746f20746865207a65726f2061646460008201527f7265737300000000000000000000000000000000000000000000000000000000602082015250565b6000613aa4602483612652565b9150613aaf82613a48565b604082019050919050565b60006020820190508181036000830152613ad381613a97565b9050919050565b6000613ae582612589565b9150613af083612589565b9250828203905081811115613b0857613b07612e1f565b5b92915050565b7f4552433732313a20617070726f766520746f2063616c6c657200000000000000600082015250565b6000613b44601983612652565b9150613b4f82613b0e565b602082019050919050565b60006020820190508181036000830152613b7381613b37565b9050919050565b7f4552433732313a207472616e7366657220746f206e6f6e20455243373231526560008201527f63656976657220696d706c656d656e7465720000000000000000000000000000602082015250565b6000613bd6603283612652565b9150613be182613b7a565b604082019050919050565b60006020820190508181036000830152613c0581613bc9565b9050919050565b7f4552433732314d657461646174613a2055524920717565727920666f72206e6f60008201527f6e6578697374656e7420746f6b656e0000000000000000000000000000000000602082015250565b6000613c68602f83612652565b9150613c7382613c0c565b604082019050919050565b60006020820190508181036000830152613c9781613c5b565b9050919050565b7f45524337323155524953746f726167653a2055524920736574206f66206e6f6e60008201527f6578697374656e7420746f6b656e000000000000000000000000000000000000602082015250565b6000613cfa602e83612652565b9150613d0582613c9e565b604082019050919050565b60006020820190508181036000830152613d2981613ced565b9050919050565b600081519050919050565b600082825260208201905092915050565b6000613d5782613d30565b613d618185613d3b565b9350613d71818560208601612663565b613d7a8161268d565b840191505092915050565b6000608082019050613d9a6000830187612784565b613da76020830186612784565b613db4604083018561281a565b8181036060830152613dc68184613d4c565b905095945050505050565b600081519050613de0816124ce565b92915050565b600060208284031215613dfc57613dfb612498565b5b6000613e0a84828501613dd1565b91505092915050565b7f4e487b7100000000000000000000000000000000000000000000000000000000600052601260045260246000fd5b6000613e4d82612589565b9150613e5883612589565b925082613e6857613e67613e13565b5b828204905092915050565b6000613e7e82612589565b9150613e8983612589565b925082613e9957613e98613e13565b5b828206905092915050565b7f4552433732313a206d696e7420746f20746865207a65726f2061646472657373600082015250565b6000613eda602083612652565b9150613ee582613ea4565b602082019050919050565b60006020820190508181036000830152613f0981613ecd565b9050919050565b7f4552433732313a20746f6b656e20616c7265616479206d696e74656400000000600082015250565b6000613f46601c83612652565b9150613f5182613f10565b602082019050919050565b60006020820190508181036000830152613f7581613f39565b905091905056fea264697066735822122013f59fa9207caf2d0fb5f026439ea1ad1d3ff99de7b81de4803691e7981483f264736f6c63430008110033",
  "linkReferences": {},
  "deployedLinkReferences": {}
}